:020000040800F2
:1000000000280020991A0008291A00082F1A000851
:10001000351A00083B1A0008411A000800000000C9
:10002000000000000000000000000000471A000867
:10003000531A0008000000005F1A00086B1A00083D
:10004000E11A0008E11A0008E11A0008E11A0008A4
:10005000E11A0008E11A0008E11A0008E11A000894
:10006000E11A0008E11A0008E11A0008E11A000884
:10007000E11A0008E11A0008E11A0008E11A000874
:10008000E11A0008E11A0008E11A0008E11A000864
:10009000E11A0008E11A0008E11A0008E11A000854
:1000A000E11A0008E11A0008E11A0008E11A000844
:1000B000791A0008E11A000800000000E11A00089F
:1000C000E11A00080000000000000000E11A00082A
:1000D00000000000E11A0008E11A0008000000001A
:1000E000E11A0008E11A0008E11A00080000000007
:1000F0000000000000000000000000000000000000
:0C01000000000000000000005FF808F1A3
:1001100010B5054C237833B9044B13B10448AFF341
:1001200000800123237010BD7C000020000000002F
:100130003831000808B5034B1BB103490348AFF33E
:10014000008008BD00000000800000203831000859
:1001500081F0004102E000BF83F0004330B54FEA78
:1001600041044FEA430594EA050F08BF90EA020FE5
:100170001FBF54EA000C55EA020C7FEA645C7FEA78
:10018000655C00F0E2804FEA5454D4EB5555B8BF9B
:100190006D420CDD2C4480EA020281EA030382EA0C
:1001A000000083EA010180EA020281EA0303362D9E
:1001B00088BF30BD11F0004F4FEA01314FF4801C71
:1001C0004CEA113102D0404261EB410113F0004F83
:1001D0004FEA03334CEA133302D0524263EB43033A
:1001E00094EA050F00F0A780A4F10104D5F1200ED8
:1001F0000DDB02FA0EFC22FA05F2801841F1000133
:1002000003FA0EF2801843FA05F359410EE0A5F106
:1002100020050EF1200E012A03FA0EFC28BF4CF037
:10022000020C43FA05F3C01851EBE37101F00045ED
:1002300007D54FF0000EDCF1000C7EEB00006EEBFA
:100240000101B1F5801F1BD3B1F5001F0CD3490884
:100250005FEA30004FEA3C0C04F101044FEA4452DB
:1002600012F5800F80F09A80BCF1004F08BF5FEA62
:10027000500C50F1000041EB045141EA050130BD42
:100280005FEA4C0C404141EB0101013C28BFB1F554
:10029000801FE9D291F0000F04BF01460020B1FA9F
:1002A00081F308BF2033A3F10B03B3F120020CDA72
:1002B0000C3208DD02F1140CC2F10C0201FA0CF050
:1002C00021FA02F10CE002F11402D8BFC2F1200CB5
:1002D00001FA02F120FA0CFCDCBF41EA0C0190406B
:1002E000E41AA2BF01EB0451294330BD6FEA0404B4
:1002F0001F3C1CDA0C340EDC04F11404C4F120029F
:1003000020FA04F001FA02F340EA030021FA04F3B0
:1003100045EA030130BDC4F10C04C4F1200220FA07
:1003200002F001FA04F340EA0300294630BD21FA45
:1003300004F0294630BD94F0000F83F4801306BF0B
:1003400081F480110134013D4EE77FEA645C18BFFF
:100350007FEA655C29D094EA050F08BF90EA020F96
:1003600005D054EA000C04BF1946104630BD91EA8E
:10037000030F1EBF0021002030BD5FEA545C05D191
:100380004000494128BF41F0004130BD14F58004D0
:100390003CBF01F5801130BD01F0004545F0FE4144
:1003A00041F470014FF0000030BD7FEA645C1ABF79
:1003B000194610467FEA655C1CBF0B46024650EAB0
:1003C000013406BF52EA033591EA030F41F40021DC
:1003D00030BD00BF90F0000F04BF0021704730B562
:1003E0004FF4806404F132044FF000054FF0000137
:1003F00050E700BF90F0000F04BF0021704730B5F8
:100400004FF4806404F1320410F0004548BF4042CC
:100410004FF000013EE700BF42004FEAE2014FEA21
:1004200031014FEA02701FBF12F07F4393F07F4FFC
:1004300081F06051704732F07F4208BF704793F0FF
:100440007F4F04BF41F40021704730B54FF4607412
:1004500001F0004521F000411CE700BF50EA010215
:1004600008BF704730B54FF000050AE050EA0102BE
:1004700008BF704730B511F0004502D5404261EB2E
:1004800041014FF4806404F132045FEA915C3FF46F
:10049000D8AE4FF003025FEADC0C18BF03325FEA0C
:1004A000DC0C18BF033202EBDC02C2F1200300FABD
:1004B00003FC20FA02F001FA03FE40EA0E0021FAE2
:1004C00002F11444BDE600BF70B54FF0FF0C4CF4D0
:1004D000E06C1CEA11541DBF1CEA135594EA0C0F82
:1004E00095EA0C0F00F0DEF82C4481EA030621EABD
:1004F0004C5123EA4C5350EA013518BF52EA0335F8
:1005000041F4801143F4801338D0A0FB02CE4FF0A9
:100510000005E1FB02E506F00042E0FB03E54FF0D9
:100520000006E1FB03569CF0000F18BF4EF0010ED1
:10053000A4F1FF04B6F5007F64F5407404D25FEACD
:100540004E0E6D4146EB060642EAC62141EA555180
:100550004FEAC52040EA5E504FEACE2EB4F1FD0CC2
:1005600088BFBCF5E06F1ED8BEF1004F08BF5FEA40
:10057000500E50F1000041EB045170BD06F00046F2
:1005800046EA010140EA020081EA0301B4EB5C049F
:10059000C2BFD4EB0C0541EA045170BD41F4801197
:1005A0004FF0000E013C00F3AB8014F1360FDEBFBC
:1005B000002001F0004170BDC4F10004203C35DA98
:1005C0000C341BDC04F11404C4F1200500FA05F31B
:1005D00020FA04F001FA05F240EA020001F00042BC
:1005E00021F0004110EBD37021FA04F642EB060132
:1005F0005EEA430E08BF20EAD37070BDC4F10C045C
:10060000C4F1200500FA04F320FA05F001FA04F21F
:1006100040EA020001F0004110EBD37041F100010B
:100620005EEA430E08BF20EAD37070BDC4F1200516
:1006300000FA05F24EEA020E20FA04F301FA05F27E
:1006400043EA020321FA04F001F0004121FA04F226
:1006500020EA020000EBD3705EEA430E08BF20EAF6
:10066000D37070BD94F0000F0FD101F00046400030
:1006700041EB010111F4801F08BF013CF7D041EAB2
:10068000060195F0000F18BF704703F000465200B6
:1006900043EB030313F4801F08BF013DF7D043EA87
:1006A0000603704794EA0C0F0CEA135518BF95EA3D
:1006B0000C0F0CD050EA410618BF52EA4306D1D1C4
:1006C00081EA030101F000414FF0000070BD50EAE3
:1006D000410606BF1046194652EA430619D094EA6D
:1006E0000C0F02D150EA013613D195EA0C0F05D157
:1006F00052EA03361CBF104619460AD181EA0301AB
:1007000001F0004141F0FE4141F470014FF0000062
:1007100070BD41F0FE4141F4780170BD70B54FF0FD
:10072000FF0C4CF4E06C1CEA11541DBF1CEA13557D
:1007300094EA0C0F95EA0C0F00F0A7F8A4EB05045F
:1007400081EA030E52EA03354FEA013100F0888056
:100750004FEA03334FF0805545EA131343EA12631F
:100760004FEA022245EA111545EA10654FEA0026D4
:100770000EF000419D4208BF964244F1FD0404F58D
:10078000407402D25B084FEA3202B61A65EB0305E9
:100790005B084FEA32024FF480104FF4002CB6EBA6
:1007A000020E75EB030E22BFB61A754640EA0C0026
:1007B0005B084FEA3202B6EB020E75EB030E22BF66
:1007C000B61A754640EA5C005B084FEA3202B6EBA7
:1007D000020E75EB030E22BFB61A754640EA9C0066
:1007E0005B084FEA3202B6EB020E75EB030E22BF36
:1007F000B61A754640EADC0055EA060E18D04FEAF4
:10080000051545EA16754FEA06164FEAC30343EA93
:1008100052734FEAC2025FEA1C1CC0D111F4801F60
:100820000BD141EA00014FF000004FF0004CB6E759
:1008300011F4801F04BF01430020B4F1FD0C88BFF8
:10084000BCF5E06F3FF6AFAEB5EB030C04BFB6EB03
:10085000020C5FEA500C50F1000041EB045170BDF6
:100860000EF0004E4EEA113114EB5C04C2BFD4EB23
:100870000C0541EA045170BD41F480114FF0000EA7
:10088000013C90E645EA060E8DE60CEA135594EA23
:100890000C0F08BF95EA0C0F3FF43BAF94EA0C0F26
:1008A0000AD150EA01347FF434AF95EA0C0F7FF49B
:1008B00025AF104619462CE795EA0C0F06D152EAEF
:1008C00003353FF4FDAE1046194622E750EA4106D3
:1008D00018BF52EA43067FF4C5AE50EA41047FF4E4
:1008E0000DAF52EA43057FF4EBAE12E74FEA410247
:1008F00012F5001215D211D56FF47873B3EB625272
:1009000012D94FEAC12343F0004343EA505311F098
:10091000004F23FA02F018BF404270474FF000002A
:10092000704750EA013005D111F0004008BF6FF068
:10093000004070474FF00000704700BF80B483B0A4
:1009400000AF7860094A7B6852F82330012B06D14A
:10095000064A7B68002142F82310012300E00023AF
:1009600018460C37BD4680BC704700BF9800002079
:1009700080B483B000AF7860044A7B68012142F8FC
:10098000231000BF0C37BD4680BC70479800002084
:1009900080B582B000AF00237B606FE03B4A7B688C
:1009A00052F823203A497B6841F82320394A7B6872
:1009B00052F8232035497B6841F82320364A7B686A
:1009C00032F813301946354801F076FB03461946D4
:1009D000304A7B6842F823102D4A7B6852F8232066
:1009E0002A497B6851F823309A4244D1274A7B68D0
:1009F00052F8232027497B6851F823309A423AD194
:100A0000274A7B6852F8232022497B6851F823301B
:100A10009A421CD01F4A7B6852F8232020497B68E9
:100A200041F823201B4A7B6852F82330002B22D147
:100A30007868FFF79DFF00F0B7FD03464FF4FA62B8
:100A400092FBF3F217497B6841F8232013E0154A23
:100A50007B6852F823305A1E12497B6841F82320E4
:100A6000104A7B6852F82330002B04D10C4A7B6873
:100A7000012142F823107B6801337B607B68022BE5
:100A80008CDD00BF00BF0837BD4680BD0C000020D4
:100A90000000002018000020300000200008014065
:100AA00024000020A400002080B584B000AFF860CE
:100AB000B9607A603B601A4B1B88FA68D2B219465B
:100AC000184801F010FB164B5B88BA68D2B2194681
:100AD000144801F008FB124B9B887A68D2B2194681
:100AE000104801F000FB0E4BDB883A68D2B2194681
:100AF0000C4801F0F8FA0A4B1B89BA69D2B21946C0
:100B0000084801F0F0FA064B5B89FA69D2B219463F
:100B1000044801F0E8FA00BF1037BD4680BD00BFB1
:100B2000380000200008014080B582B000AF786036
:100B30007B68092B00F2808101A252F823F000BFEC
:100B4000690B0008B10B0008F90B0008410C000804
:100B5000890C0008D10C0008190D0008610D00086F
:100B6000A90D0008F10D000800220121B54801F08F
:100B7000BAFA00220221B34801F0B5FA002204219A
:100B8000B04801F0B0FA00220821AE4801F0ABFAFB
:100B900000221021AB4801F0A6FA00222021A9482A
:100BA00001F0A1FA01224021A64801F09CFA44E19B
:100BB00001220121A34801F096FA00220221A14856
:100BC00001F091FA002204219E4801F08CFA0122E2
:100BD00008219C4801F087FA01221021994801F070
:100BE00082FA01222021974801F07DFA012240215A
:100BF000944801F078FA20E100220121914801F0A7
:100C000072FA002202218F4801F06DFA01220421BC
:100C10008C4801F068FA002208218A4801F063FA42
:100C200000221021874801F05EFA01222021854828
:100C300001F059FA00224021824801F054FAFCE008
:100C4000002201217F4801F04EFA002202217D4856
:100C500001F049FA002204217A4801F044FA002206
:100C60000821784801F03FFA01221021754801F06F
:100C70003AFA01222021734801F035FA002240217E
:100C8000704801F030FAD8E0012201216D4801F0EE
:100C90002AFA002202216B4801F025FA00220421E1
:100CA000684801F020FA01220821664801F01BFA89
:100CB00001221021634801F016FA00222021614828
:100CC00001F011FA002240215E4801F00CFAB4E074
:100CD000002201215B4801F006FA01220221594855
:100CE00001F001FA00220421564801F0FCF900222B
:100CF0000821544801F0F7F901221021514801F070
:100D0000F2F9002220214F4801F0EDF900224021A4
:100D10004C4801F0E8F990E000220121494801F037
:100D2000E2F901220221474801F0DDF90022042105
:100D3000444801F0D8F900220821424801F0D3F9D3
:100D4000002210213F4801F0CEF9002220213D4829
:100D500001F0C9F9002240213A4801F0C4F96CE0E1
:100D600000220121374801F0BEF900220221354856
:100D700001F0B9F900220421324801F0B4F901224E
:100D80000821304801F0AFF9012210212D4801F06F
:100D9000AAF9012220212B4801F0A5F901224021C6
:100DA000284801F0A0F948E000220121254801F07F
:100DB0009AF900220221234801F095F9002204212A
:100DC000204801F090F9002208211E4801F08BF91B
:100DD000002210211B4801F086F900222021194829
:100DE00001F081F900224021164801F07CF924E04D
:100DF00000220121134801F076F900220221114856
:100E000001F071F9002204210E4801F06CF9002272
:100E100008210C4801F067F901221021094801F06E
:100E200062F900222021074801F05DF900224021EB
:100E3000044801F058F900E000BF00BF0837BD4684
:100E400080BD00BF000C014080B485B000AFF860E9
:100E5000B9607A603B60084AFB681360064ABB6869
:100E60005360054A7B689360034A3B68D36000BFC8
:100E70001437BD4680BC704748000020B0B582B032
:100E800000AFA54B1B680A2B0BD0A34B1B680B2B89
:100E900007D0A14B1B680C2B03D09F4B1B680D2B5D
:100EA0003DD19E4B1B689E4A82FB03125211DB17F9
:100EB000D31A7B609B4B1B68994A82FB0312521129
:100EC000DB17D31A3B607B68974A82FB03129210B0
:100ED000DB17D41A7A68944B83FB02139910D3174B
:100EE000C91A0B469B000B445B00D11A3B688E4A23
:100EF00082FB03029210DB17D51A3A688A4B83FBF8
:100F000002039810D317C01A03469B0003445B00EA
:100F1000D01A03462A462046FFF796FF58E07E4B3C
:100F20001B68162B19D1814B1B687F4A82FB031269
:100F30009210DB17D01A7D4B1A687B4B83FB021390
:100F40009910D317C91A0B469B000B445B00D11AAA
:100F500002230022FFF778FF3AE06F4B1B68172B44
:100F600019D1724B1B68704A82FB03129210DB1777
:100F7000D01A6E4B1A686C4B83FB02139910D3176F
:100F8000C91A0B469B000B445B00D11A03230022B5
:100F9000FFF75AFF1CE0604B1B68182B18D1634BFE
:100FA0001B68614A82FB03129210DB17D01A5F4B59
:100FB0001A685D4B83FB02139910D317C91A0B46AD
:100FC0009B000B445B00D11A04230022FFF73CFF77
:100FD000574B1B68012B40F09B80564B1B68032B23
:100FE00000F2908001A252F823F000BFFD0F00082C
:100FF0003F10000881100008C310000800224FF4C1
:1010000080614D4801F06FF801224FF400614A48B9
:1010100001F069F801224FF48051474801F063F86C
:1010200001224FF40051444801F05DF8434B1B6826
:101030001846FFF779FD3F4B01221A6063E0012259
:101040004FF480613C4801F04EF800224FF40061FB
:10105000394801F048F801224FF48051364801F038
:1010600042F801224FF40051334801F03CF8334B71
:101070005B681846FFF758FD2E4B02221A6042E0CB
:1010800001224FF480612C4801F02DF801224FF429
:101090000061294801F027F800224FF480512648CA
:1010A00001F021F801224FF40051234801F01BF810
:1010B000224B9B681846FFF737FD1E4B03221A6030
:1010C00021E001224FF480611B4801F00CF801225D
:1010D0004FF40061184801F006F801224FF48051E6
:1010E000154801F000F800224FF40051124800F0BA
:1010F000FAFF124BDB681846FFF716FD0D4B002276
:101100001A6000E000BF0E4B1B68184600F0B0FBF1
:1011100000BF0837BD46B0BD44000020C400002019
:101120001F85EB51C8000020676666666C000020D2
:10113000BC000020B0000020000801404800002052
:101140006400002080B582B000AF7860114B1B684E
:10115000012B1BD1104A7B6832F8133019460F4817
:1011600000F0D9FF79680E4B83FB0132CB17D21AFE
:1011700013465B001344CA1A074B33F81230194662
:10118000064800F0C8FFFA2000F08AFB00BF0837CD
:10119000BD4680BDC000002038000020000801408E
:1011A0005655555580B582B002AF8F4B1B680A3B30
:1011B0000A2B00F20E8101A252F823F03712000828
:1011C000971200080713000865130008D3130008DE
:1011D000D3130008D3130008D3130008D313000857
:1011E000D3130008E91100087F4B0A221A6001237B
:1011F0000193012300930123012201210120FFF724
:1012000053FC01227F21794800F06DFF784B1B6869
:10121000184600F0FDFA774B1B68184600F010FBEB
:10122000754B1B68184600F023FB744B1B6818466F
:1012300000F036FBD4E0FFF721FE002301930123E9
:1012400000930123012201210020FFF72DFC6C4BAC
:101250001B68012B07D1644B0B221A60694B1B687A
:10126000184600F0EDFA0020FFF768FB0346012B5B
:1012700040F0B1805C4B16221A60634B01221A6069
:101280000123019301230093012301220121012065
:10129000FFF70AFC9FE0FFF7F1FD01230193002314
:1012A00000930123012201210020FFF7FDFB544B95
:1012B0001B68012B03D0554B1B68012B0CD14A4BEB
:1012C0000C221A604B4B1B68184600F0A1FA484BE1
:1012D0001B68184600F0B4FA0020FFF72FFB034606
:1012E000012B7AD1404B16221A60474B01221A601B
:1012F00001230193012300930123012201210120F5
:10130000FFF7D2FB69E0FFF7B9FD01230193012349
:1013100000930023002201210120FFF7C5FB3B4B76
:101320001B68012B07D1304B0D221A60354B1B680F
:10133000184600F06DFA0020FFF700FB0346012B72
:101340004DD1294B16221A602F4B01221A6001231E
:101350000193012300930123012201210120FFF7C2
:10136000A3FB3CE0FFF78AFD0123019301230093D7
:101370000023012200210120FFF796FB204B1B6870
:10138000012B03D0214B1B68012B0CD1164B0A22D9
:101390001A60174B1B68184600F03AFA154B1B6889
:1013A000184600F04DFA0020FFF7C8FA0346012B5B
:1013B0000FD10D4B16221A60134B01221A60012324
:1013C0000193012300930123012201210120FFF752
:1013D0006BFB00BF04E000BF02E000BF00E000BF05
:1013E00000BFBD4680BD00BF44000020000C01408E
:1013F00058000020600000206400002068000020E9
:10140000B80000205C0000206C000020B400002028
:1014100080B582B002AF5E4B1B68182B7FD0182BB3
:1014200000F3AE80162B02D0172B3CD0A8E0FFF7BC
:1014300025FD0320FFF786FE0020FFF77FFA034615
:10144000012B0FD1524B17221A60524B01221A6006
:101450000123019301230093012301220121012093
:10146000FFF722FB0120FFF769FA0346012B0BD19E
:10147000484B1B680133474A1360464B1B68642B7B
:1014800002D1444B01221A600220FFF757FA0346AB
:10149000012B77D13F4B1B684FF47A7202FB03F3A9
:1014A0003D4A13606EE0FFF7E9FC0420FFF74AFEB7
:1014B0000020FFF743FA0346012B0FD1344B1822CB
:1014C0001A60344B01221A60012301930123009317
:1014D0000123012201210120FFF7E6FA0120FFF795
:1014E0002DFA0346012B0BD12A4B1B680133294AE5
:1014F0001360284B1B68642B02D1264B01221A6013
:101500000220FFF71BFA0346012B3DD1214B1B683C
:101510004FF47A7202FB03F3204A136034E0FFF7C2
:10152000ADFC0520FFF70EFE0020FFF707FA03468B
:10153000012B05D1164B14221A60164B01221A609A
:101540000120FFF7FBF90346012B0BD1114B1B6860
:101550000133104A13600F4B1B68642B02D10D4BF3
:1015600001221A600220FFF7E9F90346012B07D197
:10157000084B1B684FF47A7202FB03F3084A1360AE
:1015800000BF02E000BF00E000BF00BFBD4680BD5D
:10159000440000206C000020580000205C00002067
:1015A000600000200000000080B500AF104B5B68B9
:1015B00001330F4AD268013202FB03F34FF47A720F
:1015C00002FB03F31846FEF705FF07A3D3E9002348
:1015D000FFF7A4F802460B4610461946FFF786F9B6
:1015E0000346184680BD00BF0000000080845E41B5
:1015F000D400002080B500AF00F074FA00F01AF8B3
:1016000000F0A0F800F052F8034801F0D5F9FFF718
:10161000C9FDFFF7FDFEFAE7D400002080B582B0D7
:1016200000AF786000F054F9FFF7B2F900BF083757
:10163000BD4680BD80B590B000AF07F118032822E9
:101640000021184601F070FD3B1D00221A605A600F
:101650009A60DA601A610223BB610123BB62102326
:10166000FB6200237B6307F11803184600F06CFD52
:101670000346002B01D000F0C5F80F237B60002348
:10168000BB600023FB6000233B6100237B613B1DAB
:101690000021184600F0D8FF0346002B01D000F0CF
:1016A000B1F800BF4037BD4680BD000080B586B0B0
:1016B00000AF07F1080300221A605A609A60DA60EE
:1016C0003B4600221A605A601D4B4FF080421A6060
:1016D0001B4B41F63F725A60194B00229A60184B1F
:1016E0000922DA60164B00221A61154B00229A611A
:1016F000134801F011F90346002B01D000F082F8E5
:101700004FF48053BB6007F1080319460C4801F001
:10171000A7FA0346002B01D000F074F800233B60C9
:1017200000237B603B461946054801F06FFC0346E9
:10173000002B01D000F066F800BF1837BD4680BD11
:10174000D400002080B586B000AF07F10803002266
:101750001A605A609A60DA60274B9B69264A43F008
:1017600004039361244B9B6903F004037B607B6853
:10177000214B9B69204A43F0080393611E4B9B69F0
:1017800003F008033B603B68002243F6F0711B48FE
:1017900000F0A9FC0022FF21194800F0A4FC0E2350
:1017A000BB600023FB6001233B6107F1080319467E
:1017B000124800F007FB43F6F073BB600123FB60A7
:1017C00000233B6102237B6107F1080319460B48A4
:1017D00000F0F8FAFF23BB600123FB6000233B61AC
:1017E00002237B6107F108031946054800F0EAFA75
:1017F00000BF1837BD4680BD001002400008014000
:10180000000C014080B400AF72B600BFFEE70000DC
:1018100080B582B000AF7860FFF7C6FE02467B68F5
:1018200093FBF2F3044A1360044B00221A6000BFDA
:101830000837BD4680BD00BFC4000020B4000020B2
:1018400080B582B000AF7860FFF7AEFE02467B68DD
:1018500093FBF2F3044A1360044B00221A6000BFAA
:101860000837BD4680BD00BFC8000020B80000207A
:1018700080B582B000AF7860FFF796FE02467B68C5
:1018800093FBF2F3044A1360044B00221A6000BF7A
:101890000837BD4680BD00BFCC000020BC00002042
:1018A00080B582B000AF7860FFF77EFE02467B68AD
:1018B00093FBF2F3044A1360044B00221A6000BF4A
:1018C0000837BD4680BD00BFD0000020C00000200A
:1018D00080B400AF214B1B68002B0BDD1F4B1B6836
:1018E000013B1E4A13601D4B1B68002B02D11C4B91
:1018F00001221A601B4B1B68002B0BDD194B1B6868
:10190000013B184A1360174B1B68002B02DC164B77
:1019100001221A60154B1B68002B0BDD134B1B6853
:10192000013B124A1360114B1B68002B02DC104B69
:1019300001221A600F4B1B68002B0BDD0D4B1B683F
:10194000013B0C4A13600B4B1B68002B02DC0A4B5B
:1019500001221A6000BFBD4680BC7047C400002051
:10196000B4000020C8000020B8000020CC000020F7
:10197000BC000020D0000020C000002080B485B052
:1019800000AF154B9B69144A43F001039361124B5E
:101990009B6903F00103BB60BB680F4BDB690E4A18
:1019A00043F08053D3610C4BDB6903F080537B60C1
:1019B0007B680A4B5B68FB60FB6823F0E063FB60BD
:1019C000FB6843F08063FB60044AFB68536000BF20
:1019D0001437BD4680BC7047001002400000014033
:1019E00080B584B000AF78607B681B68B3F1804F2E
:1019F00013D10C4BDB690B4A43F00103D361094B54
:101A0000DB6903F00103FB60FB68002200211C205E
:101A100000F0A1F91C2000F0BAF900BF1037BD4654
:101A200080BD00BF0010024080B400AFFEE780B46C
:101A300000AFFEE780B400AFFEE780B400AFFEE782
:101A400080B400AFFEE780B400AF00BFBD4680BCED
:101A5000704780B400AF00BFBD4680BC704780B403
:101A600000AF00BFBD4680BC704780B500AF00F03E
:101A70007FF800BF80BD000080B500AF024800F0D5
:101A8000E7FF00BF80BD00BFD400002080B400AFDE
:101A900000BFBD4680BC70470C480D490D4A00236D
:101AA00002E0D458C4500433C4188C42F9D30A4A13
:101AB0000A4C002301E013600432A242FBD3FFF77B
:101AC000E5FF01F00DFBFFF795FD704700000020DA
:101AD0007C000020783100087C00002020010020DC
:101AE000FEE7000080B500AF084B1B68074A43F0D3
:101AF00010031360032000F023F90F2000F008F812
:101B0000FFF73CFF0023184680BD00BF00200240C5
:101B100080B582B000AF7860124B1A68124B1B7808
:101B200019464FF47A73B3FBF1F3B2FBF3F31846A3
:101B300000F03BF90346002B01D001230EE07B6847
:101B40000F2B0AD8002279684FF0FF3000F003F91C
:101B5000064A7B681360002300E00123184608371B
:101B6000BD4680BD70000020780000207400002079
:101B700080B400AF054B1B781A46054B1B68134415
:101B8000034A136000BFBD4680BC70477800002048
:101B90001C01002080B400AF024B1B681846BD46F4
:101BA00080BC70471C01002080B485B000AF786015
:101BB0007B6803F00703FB600C4BDB68BB60BA6813
:101BC0004FF6FF031340BB60FB681A02BB68134368
:101BD00043F0BF6343F40033BB60044ABB68D36087
:101BE00000BF1437BD4680BC704700BF00ED00E069
:101BF00080B400AF044BDB681B0A03F007031846F0
:101C0000BD4680BC704700BF00ED00E080B483B0EB
:101C100000AF0346FB7197F90730002B0BDBFB7914
:101C200003F01F02064997F907305B09012000FA0B
:101C300002F241F8232000BF0C37BD4680BC70473C
:101C400000E100E080B483B000AF03463960FB716F
:101C500097F90730002B0ADB3B68DAB20C4997F999
:101C600007301201D2B20B4483F800230AE03B682C
:101C7000DAB20849FB7903F00F03043B1201D2B238
:101C80000B441A7600BF0C37BD4680BC704700BFBE
:101C900000E100E000ED00E080B489B000AFF86042
:101CA000B9607A60FB6803F00703FB61FB69C3F16D
:101CB0000703042B28BF0423BB61FB690433062BF5
:101CC00002D9FB69033B00E000237B614FF0FF3248
:101CD000BB6902FA03F3DA43BB681A407B699A4096
:101CE0004FF0FF317B6901FA03F3D9437B680B4066
:101CF000134318462437BD4680BC704780B582B078
:101D000000AF78607B68013BB3F1807F01D3012392
:101D10000FE00A4A7B68013B53600F214FF0FF3010
:101D2000FFF790FF054B00229A60044B07221A60D0
:101D3000002318460837BD4680BD00BF10E000E014
:101D400080B582B000AF78607868FFF72DFF00BFE4
:101D50000837BD4680BD80B586B000AF0346B96088
:101D60007A60FB7300237B61FFF742FF78617A683A
:101D7000B9687869FFF790FF024697F90F3011466E
:101D80001846FFF75FFF00BF1837BD4680BD80B51E
:101D900082B000AF0346FB7197F907301846FFF792
:101DA00035FF00BF0837BD4680BD80B582B000AFAB
:101DB00078607868FFF7A2FF034618460837BD46EB
:101DC00080BD000080B48BB000AF78603960002324
:101DD0007B6200233B6248E101227B6A02FA03F343
:101DE000FB613B681B68FA691340BB61BA69FB6918
:101DF0009A4240F037813B685B68A34A93425ED0C9
:101E0000A14A934275D8A14A934258D09F4A93421F
:101E10006FD89F4A934252D09D4A934269D89D4AB7
:101E200093424CD09B4A934263D89B4A934246D0FC
:101E3000994A93425DD8122B2AD8122B59D801A265
:101E400052F823F0BF1E0008991E0008AB1E0008C0
:101E5000ED1E0008F31E0008F31E0008F31E000824
:101E6000F31E0008F31E0008F31E0008F31E00080E
:101E7000F31E0008F31E0008F31E0008F31E0008FE
:101E8000F31E0008F31E0008A11E0008B51E00087E
:101E9000824A934213D02CE03B68DB683B6229E026
:101EA0003B68DB6804333B6224E03B68DB68083353
:101EB0003B621FE03B68DB680C333B621AE03B6827
:101EC0009B68002B02D104233B6213E03B689B68B4
:101ED000012B05D108233B627B68FA691A6109E08E
:101EE00008233B627B68FA695A6103E000233B6286
:101EF00000E000BFBB69FF2B01D87B6801E07B6875
:101F000004337B61BB69FF2B02D87B6A9B0002E034
:101F10007B6A083B9B003B617B691A680F213B6928
:101F200001FA03F3DB431A40396A3B6901FA03F310
:101F30001A437B691A603B685B6803F08053002B8F
:101F400000F09080564B9B69554A43F00103936122
:101F5000534B9B6903F00103BB60BB68514A7B6A2A
:101F60009B08023352F82330FB607B6A03F00303C3
:101F70009B000F2202FA03F3DB43FA681340FB6075
:101F80007B68494A93420DD07B68484A934207D008
:101F90007B68474A934201D1022304E0032302E015
:101FA000012300E000237A6A02F0030292009340CA
:101FB000FA681343FB603B497B6A9B080233FA686B
:101FC00041F823203B685B6803F48033002B06D084
:101FD000384B1A683749BB6913430B6006E0354B31
:101FE0001A68BB69DB43334913400B603B685B688D
:101FF00003F40033002B06D02E4B5A682D49BB69E1
:1020000013434B6006E02B4B5A68BB69DB432949FD
:1020100013404B603B685B6803F48013002B06D0D1
:10202000244B9A682349BB6913438B6006E0214B1C
:102030009A68BB69DB431F4913408B603B685B6850
:1020400003F40013002B06D01A4BDA681949BB6958
:102050001343CB6006E0174BDA68BB69DB431549D5
:102060001340CB607B6A01337B623B681A687B6AF2
:1020700022FA03F3002B7FF4AFAE00BF00BF2C3772
:10208000BD4680BC704700BF000032100000311018
:10209000000022100000211000001210000011109A
:1020A000001002400000014000080140000C014007
:1020B000001001400004014080B485B000AF78609A
:1020C0000B467B807B689A687B881340002B02D08C
:1020D0000123FB7301E00023FB73FB7B18461437DD
:1020E000BD4680BC704780B483B000AF78600B46BB
:1020F0007B8013467B707B78002B03D07A887B68CB
:102100001A6103E07B881A047B681A6100BF0C37F0
:10211000BD4680BC704780B485B000AF78600B4688
:102120007B807B68DB68FB607A88FB6813401A045D
:10213000FB68D9437B880B401A437B681A6100BF58
:102140001437BD4680BC704780B586B000AF78605C
:102150007B68002B01D101236CE27B681B6803F0D4
:102160000103002B00F08780924B5B6803F00C03A7
:10217000042B0CD08F4B5B6803F00C03082B12D19F
:102180008C4B5B6803F48033B3F5803F0BD1894BF4
:102190001B6803F40033002B6CD07B685B68002B5A
:1021A00068D1012346E27B685B68B3F5803F06D1C6
:1021B000804B1B687F4A43F4803313602EE07B68BA
:1021C0005B68002B0CD17B4B1B687A4A23F480336D
:1021D0001360784B1B68774A23F4802313601DE05B
:1021E0007B685B68B3F5A02F0CD1724B1B68714AFA
:1021F00043F4802313606F4B1B686E4A43F48033B3
:1022000013600BE06B4B1B686A4A23F48033136046
:10221000684B1B68674A23F4802313607B685B6804
:10222000002B13D0FFF7B6FC386108E0FFF7B2FCD3
:1022300002463B69D31A642B01D90323FAE15D4BB3
:102240001B6803F40033002BF0D014E0FFF7A2FC6E
:10225000386108E0FFF79EFC02463B69D31A642B05
:1022600001D90323E6E1534B1B6803F40033002B31
:10227000F0D100E000BF7B681B6803F00203002B75
:1022800063D04C4B5B6803F00C03002B0BD0494B25
:102290005B6803F00C03082B1CD1464B5B6803F40E
:1022A0008033002B16D1434B1B6803F00203002B35
:1022B00005D07B681B69012B01D00123BAE13D4B9E
:1022C0001B6823F0F8027B685B69DB003949134324
:1022D0000B603AE07B681B69002B20D0364B012253
:1022E0001A60FFF757FC386108E0FFF753FC02461D
:1022F0003B69D31A022B01D903239BE12D4B1B68A9
:1023000003F00203002BF0D02A4B1B6823F0F802E5
:102310007B685B69DB00274913430B6015E0264BA4
:1023200000221A60FFF736FC386108E0FFF732FC44
:1023300002463B69D31A022B01D903237AE11D4BD4
:102340001B6803F00203002BF0D17B681B6803F0CD
:102350000803002B3AD07B689B69002B19D0174BE0
:1023600001221A60FFF716FC386108E0FFF712FC43
:1023700002463B69D31A022B01D903235AE10D4BC4
:102380005B6A03F00203002BF0D0012000F0A6FAF4
:102390001CE00A4B00221A60FFF7FCFB38610FE0DB
:1023A000FFF7F8FB02463B69D31A022B08D9032337
:1023B00040E100BF0010024000004242800442425F
:1023C0009E4B5B6A03F00203002BE9D17B681B681C
:1023D00003F00403002B00F0A6800023FB75974B4D
:1023E000DB6903F08053002B0DD1944BDB69934ADA
:1023F00043F08053D361914BDB6903F08053BB60A2
:10240000BB680123FB758E4B1B6803F48073002BA4
:1024100018D18B4B1B688A4A43F480731360FFF713
:10242000B9FB386108E0FFF7B5FB02463B69D31AF8
:10243000642B01D90323FDE0814B1B6803F48073F7
:10244000002BF0D07B68DB68012B06D17B4B1B6A2D
:102450007A4A43F0010313622DE07B68DB68002BAE
:102460000CD1764B1B6A754A23F001031362734B40
:102470001B6A724A23F0040313621CE07B68DB686A
:10248000052B0CD16D4B1B6A6C4A43F0040313629D
:102490006A4B1B6A694A43F0010313620BE0674B06
:1024A0001B6A664A23F001031362644B1B6A634A8A
:1024B00023F0040313627B68DB68002B15D0FFF761
:1024C00069FB38610AE0FFF765FB02463B69D31AF6
:1024D00041F28832934201D90323ABE0574B1B6A88
:1024E00003F00203002BEED014E0FFF753FB38613A
:1024F0000AE0FFF74FFB02463B69D31A41F28832EC
:10250000934201D9032395E04C4B1B6A03F002036D
:10251000002BEED1FB7D012B05D1484BDB69474AEF
:1025200023F08053D3617B68DB69002B00F081804E
:10253000424B5B6803F00C03082B61D07B68DB69BE
:10254000022B46D13F4B00221A60FFF723FB386174
:1025500008E0FFF71FFB02463B69D31A022B01D9A3
:10256000032367E0354B1B6803F00073002BF0D1A9
:102570007B681B6AB3F5803F08D1304B5B6823F45E
:1025800000327B689B682D4913434B602B4B5B6883
:1025900023F474127B68196A7B685B6A0B432749D2
:1025A00013434B60274B01221A60FFF7F3FA38619F
:1025B00008E0FFF7EFFA02463B69D31A022B01D974
:1025C000032337E01D4B1B6803F00073002BF0D092
:1025D0002FE01C4B00221A60FFF7DCFA386108E09C
:1025E000FFF7D8FA02463B69D31A022B01D903231D
:1025F00020E0124B1B6803F00073002BF0D118E0B1
:102600007B68DB69012B01D1012313E00B4B5B6875
:10261000FB60FB6803F480327B681B6A9A4206D138
:10262000FB6803F470127B685B6A9A4201D0012355
:1026300000E0002318461837BD4680BD0010024058
:10264000007000406000424280B584B000AF786006
:1026500039607B68002B01D10123D0E06A4B1B68F5
:1026600003F007033A689A4210D9674B1B6823F0BE
:10267000070265493B6813430B60634B1B6803F01B
:1026800007033A689A4201D00123B8E07B681B68CF
:1026900003F00203002B20D07B681B6803F00403C7
:1026A000002B05D0594B5B68584A43F4E0635360F4
:1026B0007B681B6803F00803002B05D0534B5B6855
:1026C000524A43F460535360504B5B6823F0F0026E
:1026D0007B689B684D4913434B607B681B6803F024
:1026E0000103002B40D07B685B68012B07D1474B6F
:1026F0001B6803F40033002B15D101237FE07B68B6
:102700005B68022B07D1414B1B6803F00073002B61
:1027100009D1012373E03D4B1B6803F00203002B3A
:1027200001D101236BE0394B5B6823F003027B6826
:102730005B68364913434B60FFF72CFAF8600AE0F8
:10274000FFF728FA0246FB68D31A41F28832934217
:1027500001D9032353E02D4B5B6803F00C027B6827
:102760005B689B009A42EBD1274B1B6803F0070381
:102770003A689A4210D2244B1B6823F00702224980
:102780003B6813430B60204B1B6803F007033A6858
:102790009A4201D0012332E07B681B6803F00403F6
:1027A000002B08D0194B5B6823F4E0627B68DB6880
:1027B000164913434B607B681B6803F00803002B2A
:1027C00009D0124B5B6823F460527B681B69DB0005
:1027D0000E4913434B6000F021F802460B4B5B6837
:1027E0001B0903F00F030A49CB5C22FA03F3094AE1
:1027F0001360094B1B681846FFF78AF90023184637
:102800001037BD4680BD00BF0020024000100240CE
:1028100060310008700000207400002090B48AB07D
:1028200000AF2A4B3C1D0FCB84E80F0040F2012380
:102830003B800023FB610023BB6100237B620023FC
:102840007B6100233B62224B5B68FB61FB6903F009
:102850000C03042B02D0082B03D02DE01D4B3B6250
:102860002DE0FB699B0C03F00F0307F128021344D2
:1028700013F8243C7B61FB6903F48033002B13D0F5
:10288000134B5B685B0C03F0010307F12802134450
:1028900013F8283CBB617B690E4A02FB03F2BB695B
:1028A000B2FBF3F37B6204E07B690B4A02FB03F3A8
:1028B0007B627B6A3B6202E0064B3B6200BF3B6A85
:1028C00018462837BD4690BC704700BF50310008FD
:1028D0000010024000127A0000093D0080B485B06B
:1028E00000AF78600A4B1B680A4AA2FB03235B0A0D
:1028F0007A6802FB03F3FB6000BFFB685A1EFA60B4
:10290000002BF9D100BF00BF1437BD4680BC704713
:1029100070000020D34D621080B582B000AF7860A7
:102920007B68002B01D1012341E07B6893F83D30A7
:10293000DBB2002B06D17B68002283F83C2078684C
:10294000FFF74EF87B68022283F83D207B681A6807
:102950007B6804331946104600F06AFA7B6801224E
:1029600083F846207B68012283F83E207B680122A1
:1029700083F83F207B68012283F840207B68012296
:1029800083F841207B68012283F842207B68012282
:1029900083F843207B68012283F844207B6801226E
:1029A00083F845207B68012283F83D2000231846E8
:1029B0000837BD4680BD000080B485B000AF7860A8
:1029C0007B6893F83D30DBB2012B01D0012335E069
:1029D0007B68022283F83D207B681B68DA687B688D
:1029E0001B6842F00102DA607B681B68164A93425A
:1029F00009D07B681B68B3F1804F04D07B681B68EB
:102A0000124A934211D17B681B689B6803F007034D
:102A1000FB60FB68062B10D07B681B681A687B681C
:102A20001B6842F001021A6007E07B681B681A68A5
:102A30007B681B6842F001021A60002318461437B5
:102A4000BD4680BC704700BF002C01400004004020
:102A500080B582B000AF78607B681B681B6903F0AB
:102A60000203022B22D17B681B68DB6803F00203A0
:102A7000022B1BD17B681B686FF002021A617B6816
:102A800001221A777B681B689B6903F00303002B04
:102A900003D0786800F0B1F905E0786800F0A4F997
:102AA000786800F0B3F97B6800221A777B681B68AE
:102AB0001B6903F00403042B22D17B681B68DB68CD
:102AC00003F00403042B1BD17B681B686FF0040226
:102AD0001A617B6802221A777B681B689B6903F482
:102AE0004073002B03D0786800F087F905E0786820
:102AF00000F07AF9786800F089F97B6800221A778B
:102B00007B681B681B6903F00803082B22D17B68D4
:102B10001B68DB6803F00803082B1BD17B681B686C
:102B20006FF008021A617B6804221A777B681B68C1
:102B3000DB6903F00303002B03D0786800F05DF934
:102B400005E0786800F050F9786800F05FF97B687C
:102B500000221A777B681B681B6903F01003102B97
:102B600022D17B681B68DB6803F01003102B1BD19C
:102B70007B681B686FF010021A617B6808221A7765
:102B80007B681B68DB6903F44073002B03D0786813
:102B900000F033F905E0786800F026F9786800F075
:102BA00035F97B6800221A777B681B681B6903F084
:102BB0000103012B0ED17B681B68DB6803F0010366
:102BC000012B07D17B681B686FF001021A617868DE
:102BD000FEF724FD7B681B681B6903F08003802BD4
:102BE0000ED17B681B68DB6803F08003802B07D164
:102BF0007B681B686FF080021A61786800F067FAE2
:102C00007B681B681B6903F04003402B0ED17B6877
:102C10001B68DB6803F04003402B07D17B681B680F
:102C20006FF040021A61786800F0F9F87B681B6861
:102C30001B6903F02003202B0ED17B681B68DB6827
:102C400003F02003202B07D17B681B686FF0200264
:102C50001A61786800F032FA00BF0837BD4680BDBF
:102C600080B584B000AF786039607B6893F83C3001
:102C7000012B01D10223B3E07B68012283F83C20C1
:102C80007B68022283F83D207B681B689B68FB60A1
:102C9000FB6823F07703FB60FB6823F47F43FB6052
:102CA0007B681B68FA689A603B681B68B3F5005F35
:102CB0003ED0B3F5005F00F28780B3F5805F00F08F
:102CC0008580B3F5805F7FD8702B1AD0702B7BD8AE
:102CD000602B50D0602B77D8502B3CD0502B73D822
:102CE000402B58D0402B6FD8302B64D0302B6BD872
:102CF000202B60D0202B67D8002B5CD0102B5AD013
:102D000062E07B6818683B6899683B685A683B6872
:102D1000DB6800F05CF97B681B689B68FB60FB6804
:102D200043F07703FB607B681B68FA689A604EE0AB
:102D30007B6818683B6899683B685A683B68DB6841
:102D400000F045F97B681B689A687B681B6842F451
:102D500080429A603BE07B6818683B6859683B6832
:102D6000DB681A4600F0BCF87B681B6850211846E7
:102D700000F013F92BE07B6818683B6859683B68E2
:102D8000DB681A4600F0DAF87B681B686021184699
:102D900000F003F91BE07B6818683B6859683B68E2
:102DA000DB681A4600F09CF87B681B6840211846D7
:102DB00000F0F3F80BE07B681A683B681B68194663
:102DC000104600F0EAF802E000BF00E000BF7B68B8
:102DD000012283F83D207B68002283F83C200023F9
:102DE00018461037BD4680BD80B483B000AF786010
:102DF00000BF0C37BD4680BC704780B483B000AFC5
:102E0000786000BF0C37BD4680BC704780B483B08B
:102E100000AF786000BF0C37BD4680BC704780B4FF
:102E200083B000AF786000BF0C37BD4680BC7047F0
:102E300080B485B000AF786039607B681B68FB6048
:102E40007B68254A934207D07B68B3F1804F03D05B
:102E50007B68224A934208D1FB6823F07003FB6031
:102E60003B685B68FA681343FB607B681A4A9342CD
:102E700007D07B68B3F1804F03D07B68174A934239
:102E800008D1FB6823F44073FB603B68DB68FA6899
:102E90001343FB60FB6823F080023B685B691343CC
:102EA000FB607B68FA681A603B689A687B68DA6244
:102EB0003B681A687B689A627B68074A934203D131
:102EC0003B681A697B681A637B6801225A6100BFFC
:102ED0001437BD4680BC7047002C01400004004000
:102EE00080B487B000AFF860B9607A60FB681B6A95
:102EF0007B61FB681B6A23F00102FB681A62FB68B6
:102F00009B693B613B6923F0F0033B617B681B01DC
:102F10003A6913433B617B6923F00A037B617A6959
:102F2000BB6813437B61FB683A699A61FB687A6905
:102F30001A6200BF1C37BD4680BC704780B487B0A2
:102F400000AFF860B9607A60FB681B6A23F010027A
:102F5000FB681A62FB689B697B61FB681B6A3B61CB
:102F60007B6923F470437B617B681B037A6913439D
:102F70007B613B6923F0A0033B61BB681B013A699D
:102F800013433B61FB687A699A61FB683A691A628C
:102F900000BF1C37BD4680BC704780B485B000AF11
:102FA000786039607B689B68FB60FB6823F0700386
:102FB000FB603A68FB68134343F00703FB607B68E0
:102FC000FA689A6000BF1437BD4680BC704780B471
:102FD00087B000AFF860B9607A603B60FB689B68BF
:102FE0007B617B6923F47F437B613B681A027B68CA
:102FF0001A43BB6813437A6913437B61FB687A69A0
:103000009A6000BF1C37BD4680BC704780B485B055
:1030100000AF786039607B6893F83C30012B01D1B8
:10302000022341E07B68012283F83C207B68022276
:1030300083F83D207B681B685B68FB607B681B68CE
:103040009B68BB60FB6823F07003FB603B681B68F8
:10305000FA681343FB607B681B68FA685A607B68F8
:103060001B68144A934209D07B681B68B3F1804FF8
:1030700004D07B681B68104A93420CD1BB6823F0D4
:103080008003BB603B685B68BA681343BB607B68C6
:103090001B68BA689A607B68012283F83D207B68D0
:1030A000002283F83C20002318461437BD4680BC1C
:1030B000704700BF002C01400004004080B483B082
:1030C00000AF786000BF0C37BD4680BC704780B44D
:1030D00083B000AF786000BF0C37BD4680BC70473E
:1030E00070B500260C4D0D4C641BA410A64209D1EE
:1030F00000F022F800260A4D0A4C641BA410A642D8
:1031000005D170BD55F8043B98470136EEE755F8F8
:10311000043B98470136F2E770310008703100082F
:10312000703100087431000803460244934200D114
:10313000704703F8011BF9E7F8B500BFF8BC08BCFD
:103140009E467047F8B500BFF8BC08BC9E46704765
:1031500002030405060708090A0B0C0D0E0F1010D8
:103160000000000000000000010203040607080937
:04317000350100081D
:04317400110100083D
:103178000100000000000000000000000100000045
:103188000000000000000000010000000000000036
:103198000000000001000000000000000000000026
:1031A8000200040008000000100020004000800019
:1031B80000010002140000000800000000000000E8
:1031C8000000000000000000401F0000D0070000C1
:1031D80070170000F5000000FA0000000100000070
:0C31E8000024F4001000000001000000B2
:0400000508001A993C
:00000001FF
